S00D000072746F73322E737265631D
S315000000004005002019310000AD2F0000233100000B
S31500000010233100002331000023310000233100008A
S315000000200000000000000000000000007D1100003C
S31500000030233100000000000095110000FD110000B2
S3150000004029270000B5280000CD290000B12A0000AC
S315000000505D2D0000891B0000B91A0000111C00006C
S30D000000605D1C00008520000074
S315000000686E6F74696D6500000000000000000000F6
S315000000780000000000000000000000000000000072
S3150000008803000000000000001023000098B60000DE
S31500000098C4000020500600205806002080060020D4
S315000000A81C0700200000000000000000400035008A
S315000000B8240900202809002070090020740900205E
S315000000C85000002058000020FFFFFFFF000000003E
S315000000D8C4B3000000000000000000000050002823
S315000000E8C3E3000080400050FF38FED4FE70FE0CCB
S315000000F8FDA8FD44FCE00052026700CD033423034B
S31500000108A34300000649064A064B064C064D064E12
S31500000118069706D70657064E064D064C064B064A60
S315000001288659000080000000400200007C00002084
S31500000138500200007E0000206002000080000020BF
S3150000014868040000820000209704000000000000F8
S31500000158000000008000000040100000860000201B
S315000001685008000096000020600400009E00002051
S3150000017868200000A2000020972000000000000070
S309000001880700000066
S31500000190704770477047D4D4A4B04BF20030C0F219
S315000001A000008668D0E900413268204690474BF24D
S315000001B09C20C0F200008768D0E900513A682846C2
S315000001C0904740F6BC18C2F2000840464FF4C061A2
S315000001D0012201F07AFF404640F20731012201F088
S315000001E074FF4FF4FA7003F0E5FF40F60C289FED1C
S315000001F0348A0DF18C0A0DF1640B0DF10409C2F27B
S31500000200000800BFB268204651469047F368204672
S31500000210514621AA98473A69284659469047BB69EC
S31500000220284659464A469847D8F800004FF0FF310D
S3150000023003F046FA01283ED1BDF98A0040F25C512E
S3150000024000EE100AB8EEC00ABDF9860080EE080A74
S3150000025001EE100AB8EEC11A81EE081ABDF988003F
S31500000260C2F2000102EE100AB8EEC22ABDF98400FD
S3150000027040F26452C2F20002002330EE020A81ED1F
S31500000280000A00EE100AB8EEC00A40F2605031EEE5
S31500000290000AC2F2000080ED000A16981499106058
S315000002A040F26852D8F80000C2F200021160002144
S315000002B0002203F0FBF84FF4FA6003F07BFFA1E79E
S315000002C00000C84280B594B000211391CDE9111108
S315000002D006A907AA08AB02914AF676110DF1140C8D
S315000002E0CDE90032C0F200010AAA09ABCDF80CC074
S315000002F005F0C4FF06281BD10A980999A0F26C7074
S315000003001090481E0F90DDE90710CDE90D10DDE9CC
S315000003100510CDE90B1040F62000C2F200000BA933
S3150000032001F00EFD40F26D50C2F200000121017095
S3150000033014B080BD0179042908D002292CD140F2DD
S315000003406C50C2F200000121017070478068C1B292
S315000003500D2901D00A2910D1B0B540F27054C2F26D
S315000003600004216841B140F27450C2F20000002539
S315000003704554FFF7A7FF2560B0BD40F27052C2F2A8
S31500000380000211683E2988BF70474B1C136040F27B
S315000003907452C2F2000250547047D4D4B2B040F640
S315000003A03804C2F200044BF24C31C0F20001204680
S315000003B001F0BAF940F620004BF21831C2F2000003
S315000003C0C0F2000101F084FC9FED538A40F60C2830
S315000003D040F26D5640F200094AF6486740F26C5A00
S315000003E0C2F200080025C2F20006C2F20009C0F2FD
S315000003F000070DF1480BC2F2000AB0EE489AB0EEC3
S3150000040048AAB0EE48BA00BFD8F800004FF0FF3156
S3150000041003F056F901281ED140F25C50C2F20000EA
S3150000042090ED008A40F26050C2F2000090ED009A12
S3150000043040F26450C2F2000090ED00AA40F268500B
S31500000440C2F2000090ED00BAD8F8000000210022A8
S31500000450002303F02BF83078012822D140F6200043
S31500000460C2F2000009A901F0D5FC0E98314600F24F
S315000004706C722E462546DDE90B400D9BDDE909CE63
S31500000480CDE900042C4635460E464BF27411013375
S315000004904846C0F20001CDF808E0CDF80CC005F0E2
S315000004A0C3FE18EE100A05F054FC41EC1C0B19EEC5
S315000004B0100A05F04EFC41EC1D0B1AEE100A05F071
S315000004C048FC41EC1E0B1BEE100A05F042FC41EC09
S315000004D0100B584639464A468DEC06CB8DED060B79
S315000004E005F0A2FE58468AF8005005F077FE02464F
S315000004F02046594601F0BAFA9AF8000038B900BF0A
S31500000500012003F057FE9AF800000128F8D14FF4B5
S315000005107A7003F04FFE77E700000000022818BF4C
S31500000520704740F6BC104BF27861C2F20000C0F290
S31500000530000101F0BFBD80B584B040F61820C2F2BC
S315000005400000016840F2B47C0131016041F21020E4
S31500000550C2F200000121CDE9001040F2A1504BF299
S315000005604B014BF20C33C2F2000CC0F20000C0F299
S315000005700001C0F200034FF48072CDF808C003F00A
S31500000580D1FB40F61C01C2F20001086008B104B0BC
S3150000059080BD0020002104B0BDE8804000F05EB8B8
S315000005A010B5044600F05CF82046BDE81040FFF7A1
S315000005B0F3BD80B584B040F61820C2F20000016891
S315000005C040F6680C0131016041F21060C2F2000091
S315000005D00121CDE9001040F21D604BF2D3014BF230
S315000005E06C33C2F2000CC0F20000C0F20001C0F28F
S315000005F000034FF48072CDF808C003F093FB40F679
S31500000600D001C2F20001086008B104B080BD00202C
S31500000610002104B0BDE8804000F020B810B50446C3
S3150000062000F01EF82046BDE81040FFF7B7BE80B5C3
S3150000063040F6C411C2F20001012002F0FAFE40F6B3
S315000006400C21C2F20001086000B180BD002000212B
S31500000650BDE8804000F002B8FFF7E9BF00BE704772
S31500000660B0B540F61024C2F2000420684FF0FF3106
S3150000067003F026F8012803D020680021FFF7EEFFDB
S3150000068040F61420C2F20000017801B1B0BD01218C
S315000006900170FFF7E1FF40F61825C2F2000500BF22
S315000006A0286801382860F1D0206800210022002344
S315000006B002F0FCFE0128F3D020680021FFF7CEFFF0
S315000006C0EEE780B540F61820C2F200000021016076
S315000006D040F61420C2F2000040F61C220170C2F25D
S315000006E000024FF48070012103F0D3F840F6102188
S315000006F0C2F20001086018B900200021FFF7AEFF22
S31500000700FFF719FFFFF755FF03F0D3FD002080BD6B
S3150000071040F66423C2F20003036040F6CC20C2F226
S315000007200000086080201060704740F6CC43C2F29B
S315000007300003036040F63450C2F2000008608020D7
S315000007401060704780B5C16D0022C8690023C4F2ED
S31500000750A012C4F24823C1E9092305F09BF800283A
S3150000076018BF012080BD062070470620704706206E
S3150000077070470620704706207047D4D4B0B586B0BF
S31500000780C36D1446D3E906C0D3E908529B6A0291A9
S31500000790CDE9043202AB61460022009505F0A4F8CB
S315000007A000281AD4002100BF6A5862500431342947
S315000007B0FAD1A96B0128A163696C4FF00000A1640E
S315000007C0A96CE164E96C2165296D6165696DE16576
S315000007D004BF0120C0F2030000E0012006B0B0BD56
S315000007E0062070470620704706207047062070478F
S315000007F0062070470620704706207047062070477F
S31500000800062070472DE9F04F89B041650D4609680D
S31500000810EE68816504466868E665A066A8680222F7
S31500000820E0662869206768696067002084F84600EA
S3150000083084F8482084F8470007C91268904710B129
S3150000084009B0BDE8F08FA06E20B1204600F0C6FBCF
S315000008500028F5D1E06D01968269D0E9043105AE34
S3150000086011610189136291810078932702284FF064
S31500000870300008BF602018445062E06D221D806978
S315000008804FF0940A029004F144000390002040F2D5
S31500000890E73900BF80462046934611460222A780CC
S315000008A000F0FCFA0028CBD103992046324640F2EC
S315000008B0011384F844A000F0ABFA0028C0D120460A
S315000008C0C82100F083FB0028BAD19DF914005A46CE
S315000008D0B0F1FF3F03DCC84508F10100DAD340F26E
S315000008E0E630804500F29081039E002084F84400A3
S315000008F02046314640F2012300F08AFA00289FD1B3
S31500000900029FA088B98900BAB1EB104F40F07E81F2
S31500000910202084F844007A1C2046314640F20163C8
S3150000092000F076FA00288BD1262084F84400786AF5
S315000009303A6990F82C0031460002431C204600F02C
S3150000094067FA00287FF47CAFE06D3146D0F818A036
S315000009500020CDE90700CDE90500B72084F8440062
S3150000096020465A4640F201135F4600F051FA00282D
S315000009707FF466AFDAF820600AF1010205A9304675
S3150000098000F0D4FA307939463870DAF8200090F859
S3150000099005C0BCF1000F09D0012005AAC3B2013081
S315000009A012F8017BC6B26645CF54F7D90CF10102A5
S315000009B020460E4600F072FA00287FF441AFDAF8BE
S315000009C020003146007B3070DAF8200090F80DC028
S315000009D0BCF1000F09D000690122D3B2013210F830
S315000009E0017BD6B26645CF54F7D90CF101022046F9
S315000009F00E4600F053FA00287FF422AFDAF8200002
S31500000A003146007D3070DAF8200090F815C0BCF150
S31500000A10000F09D080690122D3B2013210F8017BA0
S31500000A20D6B26645CF54F7D90CF10102204600F044
S31500000A3035FA00287FF404AFDAF820005946007F23
S31500000A408BF80000DAF8200090F81DC0BCF1000F0A
S31500000A5009D0006A0122D3B2013210F8017BD6B266
S31500000A606645CF54F7D90CF10102204600F016FA7C
S31500000A7000287FF4E5AEA06E10B1002084F8510086
S31500000A8093202071DAF8200059460078022260711E
S31500000A90204600F003FA00287FF4D2AEA06E0028AC
S31500000AA000F0B68094F851000028FBD0002084F8AE
S31500000AB05100DAF82000039990F824005A4684F889
S31500000AC04400DAF8200090F825000002431C204676
S31500000AD000F09EF900287FF4B3AEA08805A900BAFD
S31500000AE0000CAAF80A00E08800BA000CAAF8080070
S31500000AF0E06DD0F818800020D8F82460CDE9070012
S31500000B00CDE9050008F10102304600F00FFA307910
S31500000B102071D8F82400407950B1012105AACBB242
S31500000B20013112F8016BCFB287420BF80360F6D998
S31500000B30421C2046594600F0B1F900287FF480AEE9
S31500000B40D8F82400007B8BF80000D8F82410487BE6
S31500000B5050B109690122D3B2013211F8017BD6B234
S31500000B6086420BF80370F6D9421C2046594600F01F
S31500000B7095F900287FF464AED8F82400007D8BF840
S31500000B800000D8F82410487D50B189690122D3B2FB
S31500000B90013211F8017BD6B286420BF80370F6D902
S31500000BA0421C2046594600F079F900287FF448AEE9
S31500000BB0D8F82400007F8BF80000D8F82410487F6E
S31500000BC050B1096A0122D3B2013211F8017BD6B2C3
S31500000BD086420BF80370F6D9421C2046594600F0AF
S31500000BE05DF900287FF42CAE01982946C06802689A
S31500000BF02046904700287FF423AE44F64470C5F69D
S31500000C004D20206000201BE6142019E6062017E67A
S31500000C100DF11306942703992046324640F201133C
S31500000C2084F8447000F0F4F800287FF409AE2046FA
S31500000C30322100F0CBF900287FF402AE9DF91300B3
S31500000C400028E8D435E7022180F84810C16D9323C7
S31500000C508A69014601F8043F526A137802224371F9
S31500000C6000F01CB99322014621F8042F022200F05D
S31500000C7015B9022180F84810012180F84610942306
S31500000C80014600F1450201F8443F40F2011300F02D
S31500000C90BFB890F84820012A1EBF0220C0F2030008
S31500000CA070478C46022180F84810C16D8B69596ADD
S31500000CB091F82420014601F8442F5A6A92F825201B
S31500000CC01202531C624600F0A3B8C36DDB685B6971
S31500000CD01847C36DDB689B691847C36DDB68DB6922
S31500000CE01847C36DDB681B6A1847C36DDB685B6A10
S31500000CF01847C36DDB689B6A1847C36DDB68DB6A00
S31500000D001847C36DDB681B6B1847C16D002081ED6A
S31500000D10090AC1ED0A0A7047012180F84710B72376
S31500000D200146021D01F8443F40F2011300F070B87D
S31500000D3010B50446806D8168006849688847A06ED2
S31500000D4010B1204600F07BF900210020216010BD83
S31500000D5010B582B00168027AD1F85CE0CB6E10461D
S31500000D60DEF818C00093002A18BF06208DF804008C
S31500000D700B6844F64474C5F64D24A3421BD191F882
S31500000D804600F2B9C0071CD09EF800000B2801D01F
S31500000D90012829D1DCF8240091F84520407F4FF046
S31500000DA0FF3303EB500002F01F02904221D00220D5
S31500000DB08DF8040022E0012281F8502081F85200CB
S31500000DC023E091F84700E2B9C0071AD091F9040070
S31500000DD042064FF0040258BFC0F3C11200208DF83E
S31500000DE0042081F847000CE091F94500B0F1FF3F7F
S31500000DF0DDDD01208DF8040081F84800002081F82F
S31500000E004600096F09B16846884702B010BDD4D4C0
S31500000E102DE9F04F81B00646006844F64478C5F6E1
S31500000E204D28A0EB0800B0FA80F0994693468A4612
S31500000E30400905240025C00704BF002086F850009D
S31500000E40B06D5A46816800680F6951464B46B847EF
S31500000E5000BB3068404516D096F8500040B9304681
S31500000E60012100F0B3F8642D05F10105F4D310E07B
S31500000E703068404507D096F8520020B1013C200466
S31500000E804FF00000D7D196F85200002818BF122064
S31500000E9000E0142001B0BDE8F08FD4D42DE9F0476E
S31500000EA00546006844F64478C5F64D28A0EB0800D0
S31500000EB0B0FA80F092460E46400905274FF0000929
S31500000EC00024C00708BF85F85090A86D5246816877
S31500000ED00068CB6831469847002818BFBDE8F08700
S31500000EE02868404517D000BF95F8500040B92846FD
S31500000EF0012100F06BF8642C04F10104F4D311E035
S31500000F002868404507D095F8520020B1013F3804C3
S31500000F104FF00000D5D195F85200002818BF1220D6
S31500000F20BDE8F0871420BDE8F087D4D44379002BC0
S31500000F3043D010B59FED210A9FED211A9FED212A7E
S31500000F409FED213A4FF0000C8368D47833F80CE01B
S31500000F50937805EE104A04EE103AB8EE444A147936
S31500000F605379B8EE455A24EE004A9EFA8EFE34EEC8
S31500000F70054A05EE104A03EB2E43B8EE455A06EE37
S31500000F80103A35EE015AB8EEC66A25EE065A35EE27
S31500000F90025A25EE044A84EE034ABDEEC44A14EE14
S31500000FA0103A5BBA21F80C300CF1020344795FFA6F
S31500000FB083FCA445C8D3BDE81040704700008043B9
S31500000FC0000020440000FAC800803BCB80B50846EC
S31500000FD04FF47A7101F0A3FF002080BDB0B5856E95
S31500000FE0044695E807001268904758B9A96828682A
S31500000FF0D1F80CC041F21301C0F2000122460023D1
S31500001000E04700B1B0BDA96828684968BDE8B040AE
S31500001010084780B582B00068016859B1C26E416F59
S31500001020009201228DF8042080F8482029B16846F4
S31500001030884702E0012180F8511002B080BD80B5DA
S31500001040806E8168006809698847002080BD10B5F8
S3150000105041600A68044682604868E060C868A0612A
S315000010600020207492E80B001A68904700B110BD6A
S3150000107044F23241C4F23E31216010BD01460020E7
S3150000108001F8140F51F80C0C82680068D36800222E
S3150000109018478068826800689368042218470878B1
S315000010A03F2884BF4FF44030704780B54B784FF0EF
S315000010B0640E43EA002042F2107300FB03F005239E
S315000010C0C4F20103A0FB033C46F26963C2F6F603D1
S315000010D0A0FB0303980C1080CCF38D3041F27B43C8
S315000010E000FB03F0400C00FB0EF0C0EB1C30508000
S315000010F0488844F2740100BA800C00FB01F048F203
S315000011000301C2F20001A0FB0101C80AA0F57A6042
S3150000111013FB00F1CB1403EBD17101FB1E00918090
S31500001120D080002080BD062070470620704706202C
S3150000113070470620704710B50446806881680068CD
S315000011404968884700210020216010BD80B582B023
S315000011500168007ACA680028009218BF01208DF83D
S3150000116004004A7C012A03D101228A74C87403E070
S31500001170896909B16846884702B080BD1EF0040F30
S315000011800CBFEFF30880EFF3098001490847000020
S31500001190231200000F4B1968EFF309821EF0100F9F
S315000011A008BF22ED108A22E9F04FEFF30B8342F8D5
S315000011B0043D0A604FF0100080F31188BFF34F8F93
S315000011C0BFF36F8F03F026F84FF0000080F311880D
S315000011D000F002B808100020074801680A6802CA31
S315000011E081F30B88B2E8F04F1EF0100F08BFB2EC87
S315000011F0108A82F3098870470810002010B5EFF3B3
S315000012001184102080F3118803F0D0F830B14EF627
S315000012100450CEF200004FF08051016084F3118833
S3150000122010BD806910F8020C022808BFFFF7D4BF72
S31500001230042838BF704780B54AF688104AF68D52A2
S315000012404AF69323C0F20000C0F20002C0F2000387
S315000012504FF47E7101F060FE283140F8481D41F2DE
S315000012608121C0F200014FF0807C22F00102C163AF
S315000012706FF002010264C0F844C0C0E90913704768
S3150000128000BE00BFFEE7D4D44EF62250CEF20000D8
S31500001290F021017000F016F84EF63470CEF2000020
S315000012A0016841F04041016062B6BFF36F8FEFF312
S315000012B0148C2CF0040C8CF31488BFF36F8F02DFB0
S315000012C000BEFDE740F6B470C2F20000006844F6C6
S315000012D0D351C1F26201A0FB01014FF0FF3000EBD8
S315000012E091110020B0EB116F18BF70474EF210023B
S315000012F0CEF2000251604EF62351CEF20001F023E9
S315000013000B7090600720106070471021EFF311807A
S3150000131081F3118840F63471C2F200010A68531C49
S315000013200B605AB940F63871C2F2000108604EF6F9
S315000013300450CEF200000068C00500D1704780B5A9
S315000013404AF688104AF6AE124AF6CE43C0F20000BC
S31500001350C0F20002C0F2000340F2A44101F0DCFD3D
S3150000136040F63470C2F20000016859B101390160DB
S3150000137018BF704740F63870C2F20000006880F36C
S315000013801188704780B54AF688104BF233124AF638
S315000013905013C0F20000C0F20002C0F2000340F297
S315000013A0AD4101F0B9FD88B14EF20C00C4F2010066
S315000013B0B0F90010B1F1FF3F09DDBFF34F8F30BF29
S315000013C0BFF36F8F62B6BFF36F8F72B6704780B58B
S315000013D04EF2FE32C4F20102B2F800E04AF2025CBA
S315000013E0CFF6FF7C0023A2F800C003804EF425430D
S315000013F01380BFF34F8F30BFBFF36F8F62B6BFF35B
S315000014006F8F72B61388A2F800C0018043F425409E
S31500001410108080BD80B572B602F0A9FD0120FFF7ED
S31500001420C2FF62B6BDE8804002F0FCBD80B5EFF3B6
S315000014300380103840B2002806D44EF20041CEF2A6
S315000014400001405C0F2817D94EF60C50CEF2000072
S315000014500068400558BF80BD4AF688104AF67E727D
S315000014604AF62033C0F20000C0F20002C0F20003C8
S3150000147040F2216101F050FD4AF688104AF67E726C
S315000014804BF2DF03C0F20000C0F20002C0F200031C
S3150000149040F20F6101F040FD01600246486850606D
S315000014A0886890600869D061C86843F2213110628B
S315000014B00020C3F22C211076D160704701464068A7
S315000014C00022C2600020CA60704700F004B800F035
S315000014D06FB800F0AFB82DE9F04105464068904678
S315000014E0066928460F4600F037F808B104462CE096
S315000014F0287E4246014600281CBF39464046C5E9BB
S315000015000401B16830684C68394600230026A047BC
S31500001510044668686CB9416851B128680A68016870
S31500001520106802F0CDF8461E686818BF642600E011
S315000015300026006838B10068006801F090FF0138A5
S3150000154018BF642000E0002014B12046BDE8F081F9
S31500001550002E18BF3046C9E770B50446D0E901052C
S315000015600168066949B10A688168106802F082F864
S3150000157001281CBF642070BD6068C068A04215D0F9
S31500001580B16830680B69A9682A7B9847002818BF9C
S3150000159070BD60682246C460B16830684E69E9690A
S315000015A00023B047002808BF002070BD002070BD92
S315000015B02DE9F04381B00546406891460669284604
S315000015C00F46FFF7C9FF08B104462AE04FF00008AE
S315000015D0C5E90488B16830688E6839464A460023F2
S315000015E0B0470446686884B9416861B128680A68EA
S315000015F00168106802F064F8B0F10108686818BF65
S315000016004FF0640801E04FF00008006838B1006848
S31500001610006801F024FF013818BF642000E00020B4
S315000016201CB1204601B0BDE8F083B8F1000F18BF29
S315000016304046C9E72DE9F04381B0054640681E469D
S315000016400769284691468846FFF786FF08B1044693
S3150000165028E0C6F30720C5E90409B96838688F6829
S31500001660F2B241460123B847044668680CB1002629
S315000016700CE041680029FAD028680A6801681068F9
S3150000168002F01EF8461E686818BF6426006838B166
S315000016900068006801F0E3FE013818BF642000E02E
S315000016A000201CB1204601B0BDE8F083002E18BF13
S315000016B03046CCE770B584B004680079616800F004
S315000016C0FE000A69216A022801910ED1616900268D
S315000016D08DF80C6081B1936810685D6822690023FB
S315000016E0A8472661666120B90AE091681068C96852
S315000016F0884703208DF80C0001A9204600F002F867
S3150000170004B070BDB0B5054640680C46406820B1CF
S3150000171000680021006802F052F9E96919B1204613
S31500001720BDE8B0400847B0BD0A780123934013F0E6
S31500001730060F05D0CB695B681B781B0700F1E180BB
S315000017402DE9F04748F20003C4F2110343EA0222EE
S315000017504FF00008026280F80080C1614B69436265
S315000017608B69C0F82880C362837823F003035E1C6C
S3150000177086704E7816B943F00203837091F90B70A8
S315000017804EF2001CCEF2000C07F01F044FF0010EC3
S315000017900EFA04F60CF180047A098D7A44F8226078
S315000017A046F2003ABFF34F8FC4F2000ABFF36F8FC1
S315000017B05AF8272040F6807922F480324AF827200A
S315000017C05AF827202A010CF54075C2F20009EA559D
S315000017D049F8270091F905200F7902F01F060EFA45
S315000017E006F6530944F82360BFF34F8FBFF36F8F9C
S315000017F05AF8223023F480334AF822305AF822303D
S315000018003B01AB5449F8220091F907208B7902F08D
S315000018101F060EFA06F6570944F82760BFF34F8FE6
S31500001820BFF36F8F5AF822601B0126F480364AF800
S3150000183022605AF82260AB5449F8220091F9092037
S315000018400B7A02F01F060EFA06F6570944F82760CF
S31500001850BFF34F8FBFF36F8F5AF822401B0124F45A
S3150000186080344AF822405AF82240AB5449F8220004
S31500001870EFF310828EF3108844F204050B78C4F25D
S3150000188008054FF000442E6824FA03F326EA030302
S315000018902B602B6882F31088026A82F80280026A43
S315000018A082F80480026A82F80980026A82F80A8055
S315000018B0026A82F80B80026AA2F81A800A780EFA87
S315000018C002F340F2F932134202D0036A4024DC7478
S315000018D0036A06241C770B780EFA03F3134203D02F
S315000018E0026A4FF478439382CA784E788B78D20096
S315000018F042EA03123EB1032E08BF42F04002F2262E
S3150000190002E00322B0E0E226036A02271A70026AA6
S3150000191000259671CA69137B07EA4307082B036AF9
S3150000192008BF0A275F73066A537897783572167868
S31500001930056A06F0FE06022E4FEAC31667F3451641
S3150000194009D1FF236B701278022A026A08BF46F09B
S315000019501006D67116E0EE715268036A97785F70CA
S3150000196057781E7807F0030706F0FC0637441F7009
S31500001970D7789F74DF79127807F0A30702F05C022C
S315000019803A44DA710022C369C0E90322C0E905229C
S31500001990D1F81CE093F905309EF800105AF8234060
S315000019A003F01F0524F480344AF823405AF82340F4
S315000019B0012404FA05F60CF5C0755B09BFF35F8FC9
S315000019C045F823604CF82360C36993F90B305AF845
S315000019D0236026F480364AF823605AF8236003F021
S315000019E01F0604FA06F65B09BFF35F8F45F823600E
S315000019F04CF82360C36993F907305AF8236026F43C
S31500001A0080364AF823605AF8236003F01F0604FA6A
S31500001A1006F65B09BFF35F8F45F823604CF8236039
S31500001A20C36993F909305AF8236026F480364AF8D8
S31500001A3023605AF8236003F01F06B4405B09BFF326
S31500001A405F8F45F823404CF823401C23076A63F355
S31500001A509F01B970BEF80A10018144F65511C5F20E
S31500001A6043314160BDE8F0471046704780B5D0F875
S31500001A7020E09EF802C00CF07B038EF802308378DB
S31500001A8003F00303A2EB030C0B44026AC0E9033C18
S31500001A90937843F080039370827802F00302022A5F
S31500001AA005D10988006A41F47E41C18102E00978C6
S31500001AB0006AC170002080BDEFF303804FF07041D3
S31500001AC001EB006046F200318015C4F20001425875
S31500001AD022F480324250415840F68071C2F2000131
S31500001AE00858C1690A690169C2B9C1B1817801F0B2
S31500001AF00302C168022A05D10988026A41F47E41BF
S31500001B00D18102E00978026AD1708178026901F018
S31500001B100303D11AC26801611A44C26071B9016A2D
S31500001B208A7802F07B0204328A70416A00294FF0FB
S31500001B300001C16002D0802200F001B870472DE993
S31500001B40F04385B08146806A0DF1040830B1054640
S31500001B5095E8D800C4468CE8D80000E04046D9F89D
S31500001B601C301B78816003600271D9F82C10C160AB
S31500001B70D9F824108847D9F8280010B198E88E00C3
S31500001B808EC005B0BDE8F08310B582B0EFF30380D8
S31500001B904FF0704101EB006046F200318015C4F24F
S31500001BA00001425822F480324250415840F680717A
S31500001BB0C2F200010C58A07800F00302206A022A43
S31500001BC003D1018A6FF35F2100E04179A069019199
S31500001BD098B1606901A904F0F0FAA0786169A26978
S31500001BE000F003000144101A6161A0610ED1606A21
S31500001BF060B120460021012203E0606A30B1204630
S31500001C00042202B0BDE81040FFF799BF02B010BD34
S31500001C1010B54FF07041EFF3038001EB006140F621
S31500001C2080728815C2F2000210580C16026A937868
S31500001C3003F07B039370426A1AB100210222FFF778
S31500001C407EFF46F20030C4F2000050F8241021F462
S31500001C50803140F8241050F8240010BD4FF0704138
S31500001C60EFF3038001EB006C40F680714FEAAC5055
S31500001C70C2F2000108588178036A01F003010229C3
S31500001C8003D1198A6FF35F2100E0597910B51A79EB
S31500001C90D40602F0380204D51C7F64F3861282F063
S31500001CA040021C7904F0C7041C71436A4FEA2C6495
S31500001CB00BB1FFF744FF46F20030C4F2000050F8C3
S31500001CC0241021F4803140F8241050F8240010BD6F
S31500001CD070B54160044648694EF20046E060886986
S31500001CE00D4660610020206120722046CEF200067B
S31500001CF000F03AF995F90F1040F680700029C2F20B
S31500001D00000004D4AA7B1201725440F8214095F9D0
S31500001D100D10002904D42A7B1201725440F8214088
S31500001D2095F91110002904D42A7C1201725440F846
S31500001D30214045F24341C0F252010020216070BDAE
S31500001D4010B543F20204C4F2080494F8222002F00B
S31500001D50FE0284F8222000BF94F82220D207FBD18D
S31500001D600B784FF0CD0C03FB0CF2D20A02EB4202C9
S31500001D7003EB420222700A7902FB0CF3DB0A03EB47
S31500001D80430302EB4302A2700A7A02FB0CF3DB0A5E
S31500001D9003EB430302EB430202F03F0222710A7E89
S31500001DA002FB0CF3DB0A03EB430302EB4302A271D3
S31500001DB00A7B02FB0CF3DB0A03EB430302EB430251
S31500001DC022720A7C0132D3B203FB0CF3DB0A03EB6B
S31500001DD0430302EB4302A272097D6439CAB202FBD5
S31500001DE00CF2D20A02EB420201EB4201C9B2A18116
S31500001DF04068017811B9806800F002F994F8220071
S31500001E0040F0010084F8220094F82200C007FBD0BD
S31500001E10002010BDF0B542684EF2001C92F9112068
S31500001E2043F20203CEF2000C002AC4F208030BD4DC
S31500001E3055095CF8255002F01F0225FA02F2D20776
S31500001E4002D04FF0000E27E093F8202042F0020265
S31500001E5083F8202093F820209207FBD5426846F2AB
S31500001E60003592F91120C4F2000555F822404FF0D2
S31500001E70010E24F4803445F8224055F8225002F031
S31500001E801F0452090EFA04F40CEB8205BFF35F8FB0
S31500001E90C5F880414CF8224000224FF0FF346425FB
S31500001EA002721E783709A7EB870706EB4706F6B2DC
S31500001EB00E609E783709A7EB870706EB4706F6B252
S31500001EC04E601E7906F03F07C6F30116A6EB86069E
S31500001ED007EB4606F6B28E609E793709A7EB8707B1
S31500001EE006EB4706F6B28E611E7A3709A7EB87071F
S31500001EF006EB4706F6B2CE609E7A3709A7EB870750
S31500001F0006EB470654FA86F60E619E89F7B23F093C
S31500001F10A7EB870706EB470655FA86F64E61067A63
S31500001F20002EBDD1BEF1000F1BD093F8201001F09A
S31500001F30FD0183F8201000BF93F820108907FBD419
S31500001F404068012290F9110000F01F01400902FAD1
S31500001F5001F10CEB8000C0F88010BFF34F8FBFF388
S31500001F606F8F0020F0BDD4D470B50546406843F2AB
S31500001F7024060078C4F208060C463071C8200121F8
S31500001F8000F0CDFF307800F0FE0030703078C007EA
S31500001F90FCD168680078012803D10020F0806068D1
S31500001FA030810020307000BF96F900000028FBD475
S31500001FB0307840F00200307030788007FCD4002082
S31500001FC006F8020C16F8020C0028FBD1307840F017
S31500001FD04000307030784006FCD5002006F11C0128
S31500001FE011F8102002F07F0201F8102011F91020DC
S31500001FF0002AFBD40130032808BF70BDF0E7D4D413
S3150000200010B543F22401C4F208010278437890F82F
S3150000201002C0D0F804E00878C0F30010824212D063
S3150000202000208872887A0028FCD1087802F0010422
S3150000203000F0EF0040EA0410087000BF0878C0F313
S3150000204000109042FAD1012A11D10878C0F340104D
S3150000205083420CD0087803F0010200F0DF0040EA6A
S31500002060421008700878C0F340109842FAD10EF07A
S315000020703F0040EA8C108872C0B200BF8A7A824262
S31500002080FCD110BDEFF303804FF0704101EB00600F
S3150000209040F680718015C2F20001095801220A72C9
S315000020A046F20031C4F20001425822F48032425016
S315000020B04058704780B545F25422C5F24F0202607F
S315000020C0084600F017F8002080BDC8B201238340FF
S315000020D09BB24FF4803C002A08BF0CFA00F36FF065
S315000020E0010000EAD11008220101C4F20802002012
S315000020F05350704770B5044600F05CF840F67C7C9F
S31500002100EFF31080012181F31088C2F2000CDCF895
S31500002110001039B940F60351C4F2080100220A70D2
S3150000212040220A70DCF800100131CCF8001080F370
S315000021301088208810B340F6000E0021C4F2080E65
S31500002140606800EBC102928850F83130100ADD0356
S31500002150D2B20BD50EEB801555F8226026F48036E8
S3150000216045F8226023F4803645F822600EEB801095
S3150000217040F82230208801318142E1D3EFF310810B
S31500002180012080F31088DCF8000020B1DCF80000A4
S315000021900138CCF80000DCF8000038B940F60350EE
S315000021A0C4F20800002202708022027081F31088B7
S315000021B070BDD4D42DE9F04F81B0044600880028C4
S315000021C05CD043F240084EF2BB4A4BF2547BC4F259
S315000021D008080026C4F2010AC0F2000B4FF00109FC
S315000021E0002700BF60683BF8172000EBC600818817
S315000021F091423CD100689AF8001000F0B85009FAF4
S3150000220007F5B0F1807F05EA010015D150B901202C
S3150000221000F05BFF9AF8000028438AF800000120CE
S3150000222000F02AFF18F91700002820D418F8170024
S3150000223040F0800015E000BF50B1012000F045FFDE
S315000022409AF80000A8438AF80000012000F014FF65
S3150000225018F91700B0F1FF3F09DC18F8170000F075
S315000022607F0008F81700C820012100F058FE01374A
S31500002270032FB7D1208801368642B1D301B0BDE81D
S31500002280F08F10B5044608784FF20002C4F2090236
S3150000229002EB00202061216088684FF0010C60602D
S315000022A0087B44F204022072C869C4F20802606323
S315000022B0086AE0630020A063C4E90500C4E90700DA
S315000022C084F8290084F82A0084F82B0084F82C006E
S315000022D0EFF3108E8CF310880B781068C3F10903A6
S315000022E00CFA03F39843106010688EF310882046AA
S315000022F000F0B0F844F64311C5F249210020E16030
S3150000230010BD9C46012380F82AC000F065B99C46A2
S31500002310002380F82AC000F05FB9B0B50446006912
S315000023200025C5712168204600F094F894F826002F
S31500002330216984F82800A069B322C4E90750002067
S3150000234084F82C5084F82A50CA71B0BD0346416007
S3150000235000201A7270478446C0E90D130020CCF89D
S315000023603C207047C0684BF2BD62CAF6B6521044B4
S31500002370B0FA80F0420900200A707047B0B50446F2
S3150000238000690025C5712168204600F063F894F8BD
S315000023902600216984F82800A0694EF28013C4E95A
S315000023A00750B32084F82C5084F82A50C87120694D
S315000023B0CEF20003C5712068E56090F91110012086
S315000023C001F01F0200FA02F2490943F82120BFF387
S315000023D04F8FBFF36F8F216891F90E1001F01F0226
S315000023E000FA02F2490943F82120BFF34F8FBFF3E9
S315000023F06F8F216891F9101001F01F0200FA02F2A6
S31500002400490943F82120BFF34F8FBFF36F8F21682F
S3150000241091F90F1001F01F0200FA02F2490943F880
S315000024202120BFF34F8FBFF36F8FEFF3108180F33F
S315000024301088226844F204031278C4F20803C2F139
S3150000244009021D68904028431860186881F31088B7
S315000024500020B0BDF0B50269002313700269402365
S315000024601370026913785B06FCD5C02313700268EB
S315000024700369526A082512794EF2001C42F0E00206
S315000024801A7402680369526ACEF2000CD27840F6DA
S31500002490807E42F0E0025A7402680369526AC2F210
S315000024A0000E927862F306159D7002680369526AFF
S315000024B015785278013DB5FA85F56D0945EA42026F
S315000024C042F00402DA70026844F240255268036959
S315000024D0C0F20F05AA424FF0770208BF6FF008025C
S315000024E05A710269002393710269B323D3714A7B3F
S315000024F091F9116013010CF54072935546F20033C1
S315000025004EF82600C4F2000353F8264006F01F05D5
S3150000251024F4803443F8264053F82640012404FA74
S3150000252005F70CF5C0757609BFF35F8F45F8267081
S315000025304CF826704E7B91F90F703601D6554EF841
S31500002540270053F8276026F4803643F8276053F8AF
S31500002550276007F01F0604FA06F67F09BFF35F8FB0
S3150000256045F827604CF827604E7B91F910703601CC
S31500002570D6554EF8270053F8276026F4803643F8E0
S31500002580276053F8276007F01F0604FA06F67F094E
S31500002590BFF35F8F45F827604CF827604E7B91F9B3
S315000025A00E10360156544EF8210053F8212022F41D
S315000025B0803243F8212053F8212001F01F0204FA4B
S315000025C002F24909BFF35F8F45F821204CF821201C
S315000025D000699F210170F0BD90F808C0C0E905129E
S315000025E0BCF1010F08D101794FF4807C43EA410127
S315000025F0A0F825C080F8241010B581B04EF2200155
S3150000260080F82930C4F2010109680091009901F0AF
S315000026100F210091DDF800E0DDF800C001690B7CB8
S3150000262090F82C409CB9CEF30322A2EB1C6203FA6D
S3150000263002F2042A06D3920891F90130002B03D541
S31500002640013AF9D108216CE00022CA71826990F83A
S315000026502630002180F82810C0E9072180F82730AD
S3150000266080F82B1080F82D1080F82E1080F82F108F
S3150000267080F830100168D0F810C0496A0B784C78A1
S31500002680013BB3FA83F34A795B0991F806E043EA22
S31500002690440343EA021242EACE1242F004028CF8E4
S315000026A003200269137943F0100313710269137949
S315000026B003F0F70313710269137903F0EF03137143
S315000026C00269C979137903F07F0343EAC1111171D5
S315000026D001694A7942F001024A71016891F90F10C5
S315000026E000290BD401F01F02012303FA02F24EF275
S315000026F000134909CEF2000343F8212001694A7A02
S3150000270002F0F3024A720169BF22CA7190F82C10D6
S3150000271019B1002180F82C1003E0006902214170F4
S315000027200021084601B010BD10B582B0EFF303805A
S315000027304FF0704101EB006046F200328015C4F2A2
S315000027400002835823F4803383508058EFF30380CC
S3150000275001EB006040F680718015C2F200010C5852
S3150000276094F82D00B8B1E069002861D02168496A63
S31500002770C979012904D12046052100F037FAE0691C
S31500002780012857D0022833D0032840D12069017987
S3150000279041F040013AE0A069022804D82069017995
S315000027A041F040010171E06901280ED120690179EB
S315000027B041F0100101712069017941F008010171B0
S315000027C02069017901F0EF0101712068406AC07942
S315000027D0012803D12046052100F008FA2069C07CB3
S315000027E08DF807009DF80700012084F82D001FE0F2
S315000027F02069017941F0100101712069017941F0E8
S31500002800080101712069017901F0EF010171D4E934
S315000028100401C07C226A8854D4E9071001300139CA
S31500002820C4E9071004D12069017901F0BF010171E3
S3150000283002B010BD94F82A00012831D120684EF26A
S31500002840801390F90F10012001F01F0200FA02F226
S315000028504909CEF2000343F82120BFF34F8FBFF39F
S315000028606F8F2169CA7942F08002CA7121690A799B
S3150000287042F010020A7121690A7902F0F7020A7120
S3150000288021690A7902F0EF020A71216904224A706D
S3150000289021694A7902F0FE024A7184F82C00B6E7F3
S315000028A02069417A01F0F7014172206908214170DF
S315000028B0ADE7D4D4B0B5EFF303804FF0704146F2E4
S315000028C0003501EB0060C4F200058015425922F480
S315000028D0803242514059EFF3038001EB006040F62D
S315000028E080718015C2F200010C5894F82700C8B117
S315000028F094F82600032806D194F82800022802D16D
S3150000290094F8300068B394F824002169887494F828
S31500002910280094F82710013084F82800481E84F80F
S315000029202700B0BD94F82900D8B92068406AC0795C
S31500002930012808D194F82B0028B9206A18B120463E
S31500002940052100F053F9E06960B1D4E90401226A77
S31500002950895C8174D4E9071001300139C4E9071094
S3150000296000D0B0BD2069C17901F07F01C171206935
S315000029706FF0BE0190F90720B2F1FF3F03DC00299A
S3150000298001F10101F6D1206890F9100055F82010E8
S3150000299021F4803145F8201055F82000206890F980
S315000029A0100000280BD400F01F01012202FA01F1E9
S315000029B04EF280224009CEF2000242F82010206931
S315000029C0C17941F04001C171B0BDD4D410B5EFF367
S315000029D003804FF0704101EB006040F68071801576
S315000029E0C2F200010C582068406AC079012803D160
S315000029F02046052100F0FAF894F82900012806D1AE
S31500002A0094F82700012802D194F8300080B3E069D9
S31500002A1070BB94F82A00012822D12068012290F97F
S31500002A200F004EF2801300F01F0102FA01F1400977
S31500002A30CEF2000343F82010BFF34F8FBFF36F8F22
S31500002A402069C17941F08001C1712069042141707A
S31500002A502069417901F0FE01417184F82C2007E0DC
S31500002A602069417A01F0F70141722069082141701D
S31500002A702069C17901F0BF01C17120696FF0BE0103
S31500002A80C279520603D5002901F10101F8D1EFF30D
S31500002A9003804FF0704101EB006046F20031801573
S31500002AA0C4F20001425822F480324250405810BD10
S31500002AB0B0B5EFF303804FF0704101EB006040F6D4
S31500002AC080718015C2F200010C5821694A7A4B7A4E
S31500002AD002F01F0003F0E0030F2802F003024B721E
S31500002AE001D83AB924E021694B785B0658BF42F019
S31500002AF00102D2B1012084F82B0020690025C5719E
S31500002B0021682046FFF7A6FC94F82600216984F880
S31500002B102800A069C4E90750B32084F82C5084F833
S31500002B202A50C871204601214DE04A78520611D438
S31500002B30010706D494F82C20012A31D110F00402A2
S31500002B402ED0E06910B994F82B0098B3002919D457
S31500002B50012036E0012084F82B0008204870206808
S31500002B602169406A02784379807942EA031242EA8F
S31500002B70C01040F00200C8702069417941F001019F
S31500002B80417122E094F82600002184F82800A0690B
S31500002B90C4E90710012084F82C1084F82A100DE0EF
S31500002BA0400712D52068406AC07901280DD1204619
S31500002BB0042108E094F8290080F003002169B3227B
S31500002BC0CA71C1B2204600F011F8EFF303804FF04E
S31500002BD0704101EB006046F200318015C4F200013D
S31500002BE0425822F4803242504058B0BD10B582B0EF
S31500002BF00446806B00281ABFD0E90023CDE90023E4
S31500002C006846E26B01710260616B8847A06B18B180
S31500002C10DDE90012C0E90012002084F82B0002B0A2
S31500002C2010BDF0B591F902300246037146F200304C
S31500002C30C4F200004FF0000E50F823C040F823E025
S31500002C408B684FF600579360CB68CFF6FF77D3605B
S31500002C500B785371034303F807E04D790E79CC786E
S31500002C60ED0145EA06162643DE5592F9043040F892
S31500002C7023C092F9040000280CD449784EF2004390
S31500002C800901CEF20003C15440F68071C2F2000180
S31500002C9041F8202044F25531C0F24901002011606C
S31500002CA0F0BD90F9040046F20031C4F2000151F87B
S31500002CB0202022F4803241F8202051F8201000F024
S31500002CC01F01012202FA01F14EF200124009CEF272
S31500002CD0000202EB8003BFF35F8FC3F8801142F856
S31500002CE020100020704790F90400012200F01F0117
S31500002CF002FA01F14EF280124009CEF2000242F8C9
S31500002D002010BFF34F8F0020BFF36F8F704703462D
S31500002D100020C3E902127047014690F9040000281A
S31500002D2018D400F01F02012303FA02F24EF28013B8
S31500002D304009CEF2000343F82020BFF34F8FBFF3C4
S31500002D406F8F91F9040040F68072C2F200020023F0
S31500002D5042F82030002200200A60704770B582B029
S31500002D604FF07041EFF3038001EB006140F6807293
S31500002D708815C2F20002105846F200344279C4F2B5
S31500002D8000044FF600532243CFF6FF73D25C0D16B4
S31500002D9002F00306032E07D054F8251021F48031E3
S31500002DA044F8251054F82510816829B14279C06885
S31500002DB0CDE9000268468847032E07D154F825005E
S31500002DC020F4803044F8250054F8250002B070BD88
S31500002DD04EF22000C4F20100817940F240520068B0
S31500002DE0C2F2000252F82110C0F3026021FA00F08C
S31500002DF040F6B471C2F2000108607047F0B54EF2B9
S31500002E00FE3CC4F2010C4CF200124AF20350C4F22A
S31500002E100102ACF800000120908000BF90880028D5
S31500002E20FCD147F200030120C4F200031080986031
S31500002E30186040F2405342F6005E41F200244CF224
S31500002E4000274EF22001C2F20003C0F2311EC0F28A
S31500002E507A044FF400450026C0F6EB37C4F20101B0
S31500002E60C3E900E4C3E90256C3E904678F790D6834
S31500002E7053F82770C5F3026540F6B47E27FA05F4C9
S31500002E80C2F2000ECEF800408CF882008E7500BFAC
S31500002E90087FC007FCD042F21170088100208872BA
S31500002EA0087F8006FCD50320107741F22120C2F26C
S31500002EB0010008600520887188790A6853F82000A7
S31500002EC0C2F30262D040CEF8000042F20800C4F21B
S31500002ED00000F12202710122F023027003714FF407
S31500002EE025400A7481F83220ACF80000F0BD10B518
S31500002EF043F22800C4F2080000240470012000F008
S31500002F00E4F84EF2BB41C4F2010101200C70BDE8A9
S31500002F10104000F0B1B8D4D400BE00BFFEE740F6C2
S31500002F20B472C2F20002126841F20023C0F27A03C0
S31500002F309A4201FB00F00FD340F6FF01C0F23D01BB
S31500002F4011444DF68362C4F21B32A1FB0212110D2D
S31500002F50A0FB0101E9B11FE04CF6002348F6381149
S31500002F60C3F69A33C0F24101B3FBF2F2884207D2AC
S31500002F704FF47A7100FB01F0B0FBF2F0800808E034
S31500002F809200B0FBF2F0884206D24FF47A7100FB51
S31500002F9001F028B100F005B84FF0FF3000F001B89D
S31500002FA0704701380028FCD17047D4D42DE9F04190
S31500002FB046F22018C4F20008B8F80000B8F820104D
S31500002FC040F63C7501EA0006B7B20024C2F20005DD
S31500002FD027FA04F0C00704D055F8241009B120469A
S31500002FE088470134102CF3D1A8F81060BDE8F081B1
S31500002FF070B584B048F248060320C4F2000600F01B
S3150000300064F86FF0FF004BF2846430604FF0FF30DD
S315000030100021C0F200040122CDE9020034F811308B
S3150000302002FA01F5002B01F1010118BFA8430A2994
S31500003030F4D14EF280320190002001A9CEF20002B6
S3150000304051F8203006EB8005AB6242F820300130A3
S315000030500328F5D1032000F00FF846F200310020D6
S31500003060C4F2000134F810200AB141F820200130E2
S315000030700A28F7D104B070BD0122EFF3108182F364
S31500003080108840F6A872C2F2000232F8103023B15E
S3150000309032F81030013B22F8103032F810208AB98D
S315000030A04EF2FE3CC4F2010C4BF68402BCF8003032
S315000030B0C0F2000232F8100043F4254222EA000072
S315000030C0ACF8000081F31088704780B50122EFF359
S315000030D0108182F3108840F6A872C2F2000232F81C
S315000030E010308BB94EF2FE3C4BF68403C4F2010C51
S315000030F0C0F20003BCF800E033F8103043EA0E03D8
S3150000310043F42543ACF8003032F81030013322F88E
S31500003110103081F3108880BD00F006F8FDF7D1FA73
S31500003120FEE700BE7047D4D4B0B54EF60850CEF2D6
S3150000313000004FF47001C0F8801040F20001C0F2A8
S315000031400001016000200024FDF7E8F9FFF756FEB4
S315000031500120FDF7E3F940F24010C2F2000080F3CF
S315000031600A88002000F050F8FFF732FEFFF7BFFE96
S315000031700320FFF7AAFF40F61050C4F208004FF6EE
S31500003180FF7100BF20F8141001340C2CFAD1032073
S31500003190FFF772FF0320FFF798FF0420C4F20E002A
S315000031A00021016041608160C1600320FFF764FF78
S315000031B00220FDF7B3F9012000F026F841F20C24B5
S315000031C0C2F20004204603F011F8204603F022F86C
S315000031D04CF2EE104CF2EE11C0F20000C0F200010B
S315000031E0081A8410012C08DB4CF2EE15C0F200051B
S315000031F055F8040B8047013CFAD1FFF7F9FE002091
S31500003200BDE8B04000F02DB8F0B581B04BF2A07526
S31500003210C0F200052E68044676B16868071D00BF37
S315000032207879844204D157E90101091A02F0C1FFF5
S31500003230013E07F10C07F3D1AE6886B1E86800F1EC
S31500003240080500BF6879844205D155E9020229685C
S31500003250121A02F0B2FF013E05F11005F2D101B0DB
S31500003260F0BD70474FF0FF31024642F8081F0021BB
S31500003270C0E90322C0E900127047002101617047CE
S3150000328080B5D1F800C01CF1010207D000F1080298
S315000032909646526813686345FAD903E0D0F810E001
S315000032A0DEF804204A609160C1F808E0CEF8041008
S315000032B0086101680131016080BDD0E9012301691F
S315000032C0936042685A604A68824201D182684A60C5
S315000032D000220261086801380860704770B500284E
S315000032E04BD00446C06BC0B30E46216CA0FB010157
S315000032F099BBFEF70AF82068D4E90F12002502FBF5
S315000033000103013901FB0201A563C4E90103FF20A2
S31500003310E16084F8440084F8450004F110004EB1E1
S31500003320FFF7A0FF04F12400FFF79CFFFEF718F853
S31500003330012070BD01680029F8D001F077F9002856
S31500003340F4D04EF60450CEF200004FF080510160EA
S31500003350BFF34F8FBFF36F8FE8E74AF61D604BF25E
S3150000336014124AF6C673C0F20000C0F20002C0F2A0
S3150000337000034FF4B671FFF7CFFD4AF61D604BF21E
S3150000338014124AF69D73C0F20000C0F20002C0F2A9
S31500003390000340F23711FFF7BFFD10B582B043B30B
S315000033A0B8B11C4601B9A2B901B192B14823019343
S315000033B0019B482B2DD1019B002908BF2246C4E959
S315000033C00F01204601212260FFF788FF204602B048
S315000033D010BD4AF61D604AF65B524AF60573C0F206
S315000033E00000C0F20002C0F200034FF4D871FFF7EC
S315000033F093FD4AF61D604AF65B524AF68833C0F2E0
S315000034000000C0F20002C0F200034FF4C271FFF7E1
S3150000341083FD4AF61D604AF65B524AF61453C0F223
S315000034200000C0F20002C0F200034FF4CB71FFF7B8
S3150000343073FDB0B582B00C46012000210022234660
S315000034400025FFF7AAFF2046002100220023256061
S31500003450C4E9025500F02AF8204602B0B0BDB0B566
S3150000346098B18568044601F0CBF985421CBF00205F
S31500003470B0BDE0680138E06005D120460021002299
S31500003480002300F013F80120B0BD4AF61D604AF68D
S31500003490C1624AF64C33C0F20000C0F20002C0F22C
S315000034A0000340F2FB21FFF737FDD4D42DE9F04F9E
S315000034B085B00028049200F09D8099461546044682
S315000034C019B9206C002840F0C580B9F1020F03D16C
S315000034D0E06B012840F0AE80019101F097F910B938
S315000034E0002D40F09780FDF710FFA06BB9F1020F99
S315000034F059D0E16B884256D304F11007012002AE81
S315000035004FF0000B04AD00BF0499002966D0C00738
S3150000351002D0304601F010F9FDF722FF00F027FD3A
S31500003520FDF7F3FE94F84400FF2808BF84F844B082
S3150000353094F84500FF2808BF84F845B0FDF710FF52
S315000035403046294601F005F900284AD1FDF7DDFE8F
S31500003550D4F838A0D4F83C80FDF702FFC24515D157
S315000035600499384601F004F8204600F0EFF900F01F
S3150000357059FD80B94EF60450CEF200004FF080514E
S315000035800160BFF34F8FBFF36F8F04E0204600F05A
S31500003590DDF900F047FDFDF7B8FEA06BE16B884250
S315000035A04FF00000B0D2019920464A4600F091F94A
S315000035B054F8241F11B1204601F038F850B14EF6E8
S315000035C00450CEF200004FF080510160BFF34F8FE0
S315000035D0BFF36F8FFDF7C4FE012008E0FDF7C0FEC4
S315000035E004E0204600F0B2F900F01CFD002005B012
S315000035F0BDE8F08F4AF61D604AF6A9224AF69D7389
S31500003600C0F20000C0F20002C0F2000340F2B63180
S31500003610FFF782FC4AF61D604AF6A9224AF6BB234A
S31500003620C0F20000C0F20002C0F2000340F2BB315B
S31500003630FFF772FC4AF61D604AF6A9224AF69E3347
S31500003640C0F20000C0F20002C0F200034FF46E7137
S31500003650FFF762FC4AF61D604AF6A9224BF2A01358
S31500003660C0F20000C0F20002C0F2000340F2B7311F
S31500003670FFF752FC70B590B1866804460D4601F01E
S31500003680BFF8864204D02046294600F019F820B13A
S31500003690E0680130E060012070BD002070BD4AF690
S315000036A01D604AF654324AF64C33C0F20000C0F2AE
S315000036B00002C0F2000340F23731FFF72DFCD4D4EC
S315000036C02DE9F04F83B00028029100F0B280044645
S315000036D0006C002840F0BD800D4601F097F810B947
S315000036E0002D40F0C680FDF710FEA16BD1B1481E3B
S315000036F0A063206810B901F0C4F9A06054F8100F57
S3150000370070B1204600F092FF50B14EF60450CEF252
S3150000371000004FF080510160BFF34F8FBFF36F8FF2
S31500003720012480E004F124094FF0000B01206E46CD
S3150000373002AF4FF0000800BF0299002972D0C007FF
S3150000374002D0304600F0F8FFFDF70AFE00F00FFC4D
S31500003750FDF7DBFD94F84400FF2808BF84F844B069
S3150000376094F84500FF2808BF84F845B0FDF7F8FD3A
S315000037703046394600F0EDFF60B1204600F0E6F82D
S3150000378000F050FCFDF7C1FDA56BFDF7E9FDB5B3F3
S315000037902EE000BFFDF7B9FDD4F838A0FDF7E0FD37
S315000037A0BAF1000F05D0204600F0D0F800F03AFC40
S315000037B01EE0206838B9FDF7A8FDA06801F039F8C9
S315000037C08046FDF7CDFD0299484600F0D1FE204621
S315000037D000F0BCF800F026FC50B94EF60450CEF2CC
S315000037E000004FF080510160BFF34F8FBFF36F8F22
S315000037F0FDF78BFDA16B002000299DD077E7B8F17E
S31500003800000F09D0FDF781FDD9F8000030B1206B1B
S315000038100068C0F1050102E0002406E00021A0686E
S3150000382001F0C3F80024FDF79BFD204603B0BDE878
S31500003830F08F4AF61D604AF62F524AF66D33C0F2F3
S315000038400000C0F20002C0F2000340F28261FFF7FE
S3150000385063FB4AF61D604AF62F524BF24513C0F23F
S315000038600000C0F20002C0F2000340F28661FFF7DA
S3150000387053FB4AF61D604AF62F524AF6BB23C0F2A6
S315000038800000C0F20002C0F2000340F28B61FFF7B5
S3150000389043FBB0B582B060B10D46814209D81446EB
S315000038A0002100222346FFF778FD2046A56302B0DB
S315000038B0B0BD4AF61D604AF6D8524AF69633C0F2B3
S315000038C00000C0F20002C0F200034FF45E71FFF781
S315000038D023FB70B5866B036C0446DBB1154612B349
S315000038E0E0681A4602F069FCE168206C2268091A51
S315000038F09142E16003D2A16840420844E060A81EFC
S31500003900B0FA80F040093146002E18BF0121084068
S31500003910361A15E02068002598B9A06800F0DFFF88
S31500003920A56005460DE060681A4602F046FCD4E93B
S315000039300101226C10448842606001D320686060F7
S315000039400025711C2846A16370BDD4D4F0B581B0A2
S315000039500446FDF7DAFC94F94560012E0EDB04F10E
S31500003960240500BF286848B1284600F05FFE08B16C
S3150000397000F03FFF70B2013E0128F3DCFF2684F819
S315000039804560FDF7EDFCFDF7C0FC94F94470012F8E
S315000039900EDB04F1100500BF286848B1284600F088
S315000039A045FE08B100F025FF78B2013F0128F3DC9F
S315000039B084F8446001B0BDE8F040FDF7D1BC2DE9C4
S315000039C0F04100283DD00546006C002849D1286802
S315000039D0884610B9A868002853D1FDF727FDEFF3F4
S315000039E01186102080F31188A86BE96B884210D2EB
S315000039F095F945400130E7B2FF2FA8630BD000F0E0
S31500003A00B1FDA04218D97F2F4BD0781C85F8450010
S31500003A1012E0002011E055F8240F68B1284600F0A6
S31500003A2005FE0146B8F1000F4FF0010018BF00294E
S31500003A3003D0C8F8000000E0012086F31188BDE835
S31500003A40F0814AF61D604AF60E324AF69D73C0F2C0
S31500003A500000C0F20002C0F200034FF4A861FFF7B5
S31500003A605BFA4AF61D604AF60E324BF24513C0F277
S31500003A700000C0F20002C0F2000340F24451FFF71A
S31500003A804BFA4AF61D604AF60E324BF25903C0F263
S31500003A900000C0F20002C0F2000340F24951FFF7F5
S31500003AA03BFA4AF61D604AF60E324AF68B63C0F2BE
S31500003AB00000C0F20002C0F2000340F2CB51FFF753
S31500003AC02BFAD4D42DE9F04F83B00028029200F0EF
S31500003AD0A28016468946044619B9206C002840F093
S31500003AE0BA8000F093FE10B9002E40F0A480FDF7D6
S31500003AF00CFCD4F838A0BAF1000F28D0226C52B1D1
S31500003B00D4E902011144E160814224BF2168E160E9
S31500003B10484602F052FB54F8100FAAF10101A162C7
S31500003B2070B1204600F082FD50B14EF60450CEF240
S31500003B3000004FF080510160BFF34F8FBFF36F8FCE
S31500003B400124FDF70DFC204603B0BDE8F08F04F11B
S31500003B50240801206F464FF0000B02AE029900299F
S31500003B6055D0C00702D0384600F0E6FDFDF7F8FB59
S31500003B7000F0FDF9FDF7C9FB94F84400FF2808BFE3
S31500003B8084F844B094F84500FF2808BF84F845B08F
S31500003B90FDF7E6FB3846314600F0DBFD60B1204616
S31500003BA0FFF7D4FE00F03EFAFDF7AFFBA56BFDF77D
S31500003BB0D7FB75B322E000BFFDF7A7FBA56BFDF7AA
S31500003BC0CFFB2DB12046FFF7C1FE00F02BFA15E022
S31500003BD00299404600F0CCFC2046FFF7B7FE00F005
S31500003BE021FA58B94EF60450CEF200004FF080513B
S31500003BF00160BFF34F8FBFF36F8F00BFFDF785FBEB
S31500003C00D4F838A00020BAF1000FA7D076E7002438
S31500003C1097E7002497E74AF61D604AF6FC524AF6F3
S31500003C206D33C0F20000C0F20002C0F2000340F2A1
S31500003C30E951FFF771F94AF61D604AF6FC524AF659
S31500003C40BB23C0F20000C0F20002C0F2000340F243
S31500003C50F251FFF761F94AF61D604AF6FC524AF640
S31500003C601073C0F20000C0F20002C0F2000340F27E
S31500003C70ED51FFF751F9D4D4B0B500B3D1B140F648
S31500003C80B87E4FF0000CC2F2000E0022002300BFE7
S31500003C900EEB02046568A8420DD023B92368002BF9
S31500003CA018BF644623460832502AF1D1002B18BFAC
S31500003CB0C3E90010B0BD2346C3E90010B0BD4AF603
S31500003CC01D604AF662124BF20003C0F20000C0F219
S31500003CD00002C0F2000340F6C931FFF71DF970B5C6
S31500003CE015460E460446FDF710FB94F84400FF28DF
S31500003CF004BF002084F8440094F84500FF2804BF60
S31500003D00002084F84500FDF72BFBA06B28B904F1D1
S31500003D10240031462A4600F04CFC2046BDE870409F
S31500003D20FFF714BE2DE9F04F81B00B9D002D00F07A
S31500003D30DE800C9C002C00F0EA8081466820009012
S31500003D400098682840F0F38000980E460A9F2046A7
S31500003D5068219846924602F02CFA256366B104F172
S31500003D6034000021725C42541AB10F2901F101019D
S31500003D70F8D1002084F84300052F80F0E88005EB99
S31500003D808A000438251D20F007062846E762676486
S31500003D90FFF773FA04F11800FFF76FFAC7F1050091
S31500003DA0216BA06130464A46434624616462FDF7B2
S31500003DB053FA2060FDF7A9FA41F22C00C2F2000086
S31500003DC0016841F2080B01310160C2F2000BDBF819
S31500003DD0001041F2100A41F23807C2F2000AC2F29C
S31500003DE0000761B1DAF80000002841D1DBF80000D5
S31500003DF0E16AC06A884298BFCBF8004038E0CBF849
S31500003E0000400068012833D1002600BFB819FFF72B
S31500003E1029FA1436642EF9D141F2E408C2F20008F8
S31500003E204046FFF71FFA41F2F809C2F20009484678
S31500003E30FFF718FA41F2B800C2F20000FFF712FAD3
S31500003E4041F21400C2F20000FFF70CFA41F2A000A2
S31500003E50C2F20000FFF706FA41F2D800C2F20000F3
S31500003E60C0F8008041F2DC00C2F20000C0F8009009
S31500003E7041F20C00C2F2000001680131016041F21A
S31500003E809C01C2F20001E06A0A68904288BF08609D
S31500003E9000EB800007EB80004068A0608168E1606D
S31500003EA04D608560E06A00EB800007EB8001616190
S31500003EB057F82010013147F82010FDF751FADAF8CB
S31500003EC0000080B1DBF80000E16AC06A88420AD2CD
S31500003ED04EF60450CEF200004FF080510160BFF361
S31500003EE04F8FBFF36F8F204601B0BDE8F08F4AF6C3
S31500003EF0DA604AF6AD624AF64A23C0F20000C0F222
S31500003F000002C0F2000340F2F141FFF705F84AF65D
S31500003F10DA604AF6AD624AF68843C0F20000C0F2A3
S31500003F200002C0F2000340F2F241FEF7F5FF4AF646
S31500003F30DA604AF6AD624BF2F613C0F20000C0F248
S31500003F400002C0F2000340F2FA41FEF7E5FF4AF62E
S31500003F50DA604AF6A3424AF62F43C0F20000C0F2E6
S31500003F600002C0F2000340F26471FEF7D5FF41F291
S31500003F703000C2F2000001680131016070472DE98E
S31500003F80F04381B00E4641F23401C2F200010D68E1
S31500003F9041F2D801C2F20001D1F8008041F2DC0101
S31500003FA041F20804C2F20001C2F20004D1F8009006
S31500003FB021680746081DFFF780F9781C16D1AEB1B7
S31500003FC041F2A000C2F20000D0E9001223680131DC
S31500003FD09A6093682768FB60276804375F602368E8
S31500003FE00433936022680160506117E02068ED1980
S31500003FF04560206800F1040105D3484601B0BDE8DC
S31500004000F043FFF73DB94046FFF73AF941F2CC00DD
S31500004010C2F2000001688D4238BF056001B0BDE8FC
S31500004020F083D4D42DE9F047FDF76FF941F2300063
S31500004030C2F200000168002900F0AC800168013975
S315000040400160006828B10024FDF78AF92046BDE822
S31500004050F08741F22C00C2F2000000680028F2D07E
S3150000406041F2B800C2F20000016841F2B40A41F21E
S3150000407008090029C2F2000AC2F2000964D041F21E
S315000040809C0241F238030021C2F20002C2F2000390
S315000040904FF0010CC768FC68D4E90775A66ABD60D5
S315000040A0E7696F60776804F11805AF4201D1276AA6
S315000040B07760A1623768013F3760D4E902656769B6
S315000040C0B560A6686E607D68261DB54201D1E568BB
S315000040D07D6061613D68013D3D60E76A1568AF42FC
S315000040E088BF176007EB870703EB87077F68A76022
S315000040F0BD68E5606E60BE60E76A07EB870703EBA5
S315000041008706666153F82760013643F82760E76A39
S31500004110D9F80060F66AB74288BFCAF800C00768D7
S31500004120002FB7D141F2D800C2F200000168096839
S3150000413019B10068C068006801E04FF0FF3041F235
S31500004140CC01C2F20001086041F2D408C2F20008B4
S31500004150D8F8006056B1012400F028F908B1CAF871
S315000041600040013EF8D10020C8F80000DAF800004F
S3150000417000283FF468AFD9F800004EF60450CEF29E
S3150000418000004FF080510160BFF34F8F0124BFF351
S315000041906F8F59E74AF6DA604AF640424BF21B0344
S315000041A0C0F20000C0F20002C0F2000340F68B71BC
S315000041B0FEF7B2FE80B580B141F23001C2F20001D5
S315000041C00A6801320A600968012912D10021FFF745
S315000041D0D6FEFFF727FF00B180BD4EF60450CEF2A3
S315000041E000004FF080510160BFF34F8FBFF36F8F18
S315000041F080BD4AF6DA604AF6A5724AF69F53C0F2C7
S315000042000000C0F20002C0F2000340F68E11FEF775
S3150000421083FED4D480B541F23000C2F200000068BB
S3150000422030B141F2B400C2F200000121016080BD4C
S3150000423041F2B400C2F20000002141F29C0C016080
S31500004240C2F2000CDCF8001041F2380301EB8102E7
S31500004250C2F2000353F8220003EB820230B900BF1A
S31500004260B9B152F8140D01390028F9D050684368E5
S3150000427002F108008342536001D1D3685360D868C5
S3150000428041F20802C2F200021060CCF80010106879
S3150000429080BD4AF6DA604AF637224BF29213C0F234
S315000042A00000C0F20002C0F2000341F2FA31FEF74C
S315000042B033FEB0B58AB044F24940C4F24C500024F3
S315000042C0069005A804A903AA8DF81C40CDE904446C
S315000042D0FCF71EFADDE90320059DCDE9004044F612
S315000042E09920C0F2000006A900230295FFF71AFDE7
S315000042F041F2D000C2F20000056065B300F0E3FBB6
S31500004300012811D0013026D14AF6DA604BF20702B5
S315000043104AF6C653C0F20000C0F20002C0F2000323
S3150000432040F6A961FEF7F8FD41F2CC01C2F20001A8
S315000043304FF0FF32012080F310880A6041F210012D
S31500004340C2F20001086041F23400C2F2000000210E
S315000043500160FCF799FF4BF69000C0F20000006880
S315000043600AB0B0BD70B541F22804C2F2000420685C
S31500004370D0B141F2140541F22C06C2F20005C2F298
S31500004380000600BFFCF7C1FFE868C0680430FEF70E
S3150000439094FF306801383060206801382060FCF7EF
S315000043A0DFFF20680028EDD170BDD4D42DE9F04799
S315000043B041F23000C2F20000006848B141F2D40078
S315000043C0C2F200000168013101600020BDE8F087FB
S315000043D041F23400C2F20000016841F2CC0C4A1CE2
S315000043E0C2F2000C026022D341F2D800C2F20000F1
S315000043F001680968002940F09F8041F2DC03C2F29F
S31500004400000301681F680760196041F2E001C2F20B
S3150000441000010B6801330B600168096819B1006877
S31500004420C068006801E04FF0FF30CCF80000DCF80F
S315000044300000824201D2002074E041F2D80AC2F2A2
S31500004440000ADAF800004FF000090068002864D07E
S3150000445041F29C0E41F2380441F20808C2F2000E05
S31500004460C2F20004C2F20008002000BFDAF80050D1
S31500004470ED68EE68374657F8045FAA4250D3D6E98E
S31500004480021375698B60B16859606968B94201D1D8
S31500004490F1686960C6F81490296801392960B56A1F
S315000044A085B1D6E907138B60F1695960696806F131
S315000044B01803994201D1316A6960C6F828902968C3
S315000044C001392960F56ADEF800108D4205EB850199
S315000044D088BFCEF8005004EB81014968B1608B6853
S315000044E0F3605F608F60F16A01EB810104EB810389
S315000044F0736154F82130013344F82130F16AD8F859
S315000045000030DB6ADAF80050994288BF012029683A
S315000045100029ABD14FF0FF3502E04FF0FF35002008
S31500004520CCF8005041F2B401C2F20001096800293A
S3150000453018BF0120BDE8F0874AF6DA604AF60A623B
S315000045404AF6C113C0F20000C0F20002C0F2000336
S3150000455041F25F21FEF7E0FC41F23400C2F20000B6
S315000045600068704741F22C00C2F2000000687047F4
S3150000457010B570B10C4641F20801C2F2000109689B
S315000045801831FEF77DFE20460121BDE81040FFF7F9
S31500004590F6BC4AF6DA604AF6EA724AF6BA53C0F24E
S315000045A00000C0F20002C0F200034FF4A451FEF76F
S315000045B0B3FC10B550B341F2080CC2F2000C03462E
S315000045C0D0F804E0DCF80000002AC0F81CE0DEF8B1
S315000045D00800DCF800402062DCF8004004F1180412
S315000045E04460DCF8000000F11800CEF80800DCF8A2
S315000045F000008362186818BF4FF0FF31441C08465C
S3150000460011461C60BDE81040FFF7B9BC4AF6DA60F7
S315000046104AF64F424AF6BA53C0F20000C0F2000210
S31500004620C0F2000341F2BE41FEF776FC80B5C068D9
S31500004630C068002870D0D0E90713826A8B60C16910
S315000046405960536800F118018B4201D1036A536027
S31500004650002383621368013B136041F23002C2F209
S31500004660000212688AB141F2B80CC2F2000CDCE911
S3150000467000E2C26193680362596091600EF1010124
S31500004680C0F828C0CCF8001034E0D0E90213426923
S315000046908B60816859605368011D8B4201D1C368E4
S315000046A0536000234361136841F29C0C013B136085
S315000046B0C2F2000CC26ADCF800309A4288BFCCF81D
S315000046C0002041F2380C02EB8202C2F2000C0CEB25
S315000046D08202526882609368C36059609160C16AC1
S315000046E001EB81010CEB810242615CF82120013271
S315000046F04CF8212041F20801C2F20001C06A0968A3
S31500004700C96A884291BF002041F2B401C2F2000199
S31500004710012088BF086080BD4AF6DA604AF66F421B
S315000047204AF67933C0F20000C0F20002C0F200037C
S3150000473041F2F541FEF7F0FB41F2E001C2F2000161
S315000047400968016041F23401C2F200010968416062
S31500004750704770B568B30D46D9B30446FCF7D5FD6E
S3150000476041F2340EC2F2000EDEF8003029684A1C0F
S3150000477016D041F2E00CC2F2000CD4E90002DCF8DB
S315000047800060864201D093420CD29A1A914209D90E
S31500004790881A2860DCF800002060DEF800006060FF
S315000047A0002402E0002001242860FCF7D9FD204601
S315000047B070BD4AF6DA604AF669724AF6EB33C0F221
S315000047C00000C0F20002C0F2000341F2A551FEF75C
S315000047D0A3FB4AF6DA604AF669724AF6B843C0F2B3
S315000047E00000C0F20002C0F2000341F2A651FEF73B
S315000047F093FB41F2B400C2F2000001210160704750
S3150000480041F20800C2F200000068704741F2100051
S31500004810C2F20000006850B141F23000C2F200005E
S31500004820006800284FF0000008BF022070470120F2
S31500004830704710B3F0B581B041F20807C2F2000725
S315000048400446C06A3968C96A884218D2A169002933
S3150000485004D43968C96AC1F10501A16141F238067B
S31500004860616900EB8000C2F2000606EB800081421F
S315000048700ED03868C06AE0622EE000207047606C97
S315000048803968C96A88424FF0000038BF012024E029
S31500004890251D2846FEF711FD386841F29C01C06AC5
S315000048A0C2F20001E0620A68904288BF086000EB2D
S315000048B0800006EB80004068A0608168E1604D6082
S315000048C08560E06A00EB800006EB8001616156F8C6
S315000048D02010013146F82010012001B0F0BDB0B51E
S315000048E0002840D0044641F20800C2F200000068E9
S315000048F084423AD1A06C002847D00138A0644FF01A
S31500004900000018BFB0BDE16A626C91422AD0251D35
S315000049102846FEF7D2FC606CC0F10501A16141F2A8
S315000049209C01E062C2F200010A68904288BF0860FA
S3150000493041F2380100EB8000C2F2000101EB800079
S315000049404068A0608268E26055608560E06A00EBBE
S31500004950800001EB8002626151F82020013241F8AB
S3150000496020200120B0BD0020B0BD4AF6DA604AF62C
S3150000497075524AF6F533C0F20000C0F20002C0F2EA
S31500004980000341F62821FEF7C7FA4AF6DA604AF62E
S3150000499075524BF23603C0F20000C0F20002C0F2BC
S315000049A0000341F62921FEF7B7FA70B528B304468D
S315000049B0806C002845D0626C8A4288BF1146012867
S315000049C01BD1E06A884218D041F20802C2F2000206
S315000049D01268944245D0A269E162002A02D4C1F16C
S315000049E00501A16141F23806616900EB8000C2F25F
S315000049F0000606EB8000814200D070BD251D2846CA
S31500004A00FEF75BFC41F29C01C2F20001E06A0A6813
S31500004A10904288BF086000EB800006EB800040688B
S31500004A20A0608168E1604D608560E06A00EB80000F
S31500004A3006EB8001616156F82010013146F820101E
S31500004A4070BD4AF6DA604AF60B424BF23603C0F204
S31500004A500000C0F20002C0F2000341F68621FEF714
S31500004A605BFA4AF6DA604AF60B424AF6B073C0F2CF
S31500004A700000C0F20002C0F2000341F6A121FEF7D9
S31500004A804BFA41F20800C2F20000006810B1816CD6
S31500004A90013181647047D4D441F238044EF604558E
S31500004AA0C2F20004CEF200054FF08056FFF75AFC22
S31500004AB02068022822BF2E60BFF34F8FBFF36F8F8F
S31500004AC0FCF7A8FCF2E780B586B000F03BF841F2AF
S31500004AD00C10C2F20000006820B30020CDE90400EB
S31500004AE005A804A903AAFBF720FEDDE9032003219C
S31500004AF0DDF814C0CDE9001044F6C1304BF22711A1
S31500004B00C0F20000C0F200010023CDF808C0FFF794
S31500004B1009F941F21011C2F20001086010B101203A
S31500004B2006B080BD4AF667204BF25E124AF6C643CF
S31500004B30C0F20000C0F20002C0F200034FF4A371FD
S31500004B40FEF7EAF970B582B0FCF7DFFB41F20C160E
S31500004B50C2F20006306868BB41F22014C2F20004BB
S31500004B602046FEF77FFB41F23415C2F200052846C7
S31500004B70FEF778FB41F21410C2F20000046041F225
S31500004B801810C2F2000041F2901241F2481305607B
S31500004B900025C2F20002C2F200030A200C21009591
S31500004BA0FEF7FBFB306028B14AF6A421C0F20001F3
S31500004BB0FFF762F802B0BDE87040FCF7D1BBD4D471
S31500004BC084B041F2141841F20C15C2F2000801AC8F
S31500004BD0C2F200054FF0000BEA4600BFD8F800000D
S31500004BE0D0F80090B9F1000F02D0C068066800E066
S31500004BF00026FFF7BCF9204600F0A2F8019919B18A
S31500004C00FFF710FA2EE000BF0746B9F1000F08D0F3
S31500004C10BE4206D8FFF706FA3046394600F0BBF822
S31500004C2020E0B9F1000F01D0002208E041F218108F
S31500004C30C2F2000000680068B0FA80F042092868F5
S31500004C40F11BFFF74CF8FFF7EDF958B94EF6045093
S31500004C50CEF200004FF080510160BFF34F8FBFF3DB
S31500004C606F8F00BF2868CDE902BBCDF804B000BF46
S31500004C7021460022FEF726FF0028AFD00198002823
S31500004C804CD4039E706910B1301DFEF716FB5046DA
S31500004C9000F056F80199013908293FD80746DFE8A0
S31500004CA001F005051C231C05051C230096F82400AD
S31500004CB0029BB16940F0010086F824001944304691
S31500004CC03A4600F0A0F848B396F8240041071BD4F2
S31500004CD000F0FA0086F824001DE096F8240000F0A3
S31500004CE0FE0086F8240019E096F8240040F0010141
S31500004CF0029886F82410B06190B1C11930463A4640
S31500004D003B4600F080F809E00298B1693A46014452
S31500004D10304600F061F8316A304688472868A7E7D0
S31500004D204AF667204BF2B8024BF20F23C0F200009E
S31500004D30C0F20002C0F200034FF48261FEF7ECF805
S31500004D40F0B581B00446FFF707FC41F21C16C2F22B
S31500004D5000063168054688420ED241F21417C2F2A7
S31500004D60000700BF3868016841B1C0684FF0FF31E5
S31500004D70006800F010F8F5E7002007E041F218118E
S31500004D80C2F200010A68086001203A6020602846E5
S31500004D90356001B0F0BD70B541F21412C2F20002E6
S31500004DA012680646D2680D46D468201DFEF785FABD
S31500004DB094F82400410704D400F0FA0084F8240093
S31500004DC004E0204631462A4600F006F8216A2046CD
S31500004DD0BDE870400847D4D470B5054680691446CE
S31500004DE00E460144284600BF334600F00CF848B191
S31500004DF0A869296A064428468847A869224681196F
S31500004E002846F1E770BD8C46014641F804CF94452B
S31500004E10006108D941F214109A42C2F200000AD287
S31500004E209C4508D30DE08069D21A824209D241F22C
S31500004E301810C2F2000080B50068FEF721FA0020C3
S31500004E4080BD01207047D4D42DE9F04381B02DED0B
S31500004E500C8B90B09FED953A9946F4EE432A904616
S31500004E60B0EE608A0F46F1EE10FA054606DD9FEDBC
S31500004E70903AF4EE432AF1EE10FA0FD488EE011AB6
S31500004E809FED8C3A81EE031A9FED8B3A31EE031AB1
S31500004E909FED8A3A31EE811A71EE032A9FED889AC8
S31500004EA09FED881A82FE893AB4EE413A82FE092ABB
S31500004EB0F1EE10FAB4EE412A31FE03AAF1EE10FA31
S31500004EC010EE100AC9ED102A31FE02BA00F041FFB9
S31500004ED041EC100B04F050FB51EC100B00F0D5FF29
S31500004EE0296E0CEE100A042905F130064FF0000475
S31500004EF010D200BF385900F02CFF41EC100B04F023
S31500004F003BFB51EC100B00F0C0FF30510434242C55
S31500004F10F0D134E0B6EE00DA385900F01AFF41EC71
S31500004F20100B04F029FB51EC100B00F0AEFF311909
S31500004F3091ED000A01EE100A31EE401A21EE0D1A2B
S31500004F40043431EE000A242C81ED000AE4D195EDFB
S31500004F50150A95ED161A3CEE403A23EE0D3A95EDFC
S31500004F60172A33EE00CA3BEE410A20EE0D0A30EE58
S31500004F7001BA3AEE420A20EE0D0A30EE02AA286E77
S31500004F8000213C2885ED15CA85ED16BA85ED17AAD0
S31500004F90C5F8801012D88ECE28468EC096E89E00A0
S31500004FA09FED491A9EC095ED100A85ED09CA81EE5E
S31500004FB0009A85ED0ABA85ED0BAAD2E1B0F5167F07
S31500004FC02CD995ED091A9FED410A3CEE411AB4EE33
S31500004FD0401AF1EE10FA21DB95ED041A95ED102A30
S31500004FE032EE411AB4EE401AF1EE10FA16DB002248
S31500004FF06B1893ED001A93ED0C2A043132EE411A28
S31500005000B4EE401AF1EE10FAA8BF01322429EFD10E
S31500005010D1B206294FF0000188BF012195ED040A9F
S3150000502095ED101AB4EE401AF1EE10FA0DDA9FED76
S31500005030280A4BF694020021C0F200025358984207
S3150000504006D904310C29F9D14CE011B301266CE0E4
S31500005050002945D04BF6A007C0F200070F441144C3
S3150000506051F8041C17ED010A97ED001A5A1A02EEC0
S31500005070102A31EE401AB8EE422A81EE021A401A80
S3150000508002EE100AB8EE422A21EE021A31EE000AAA
S3150000509028E08ECE28468EC096E89E009EC085EDFE
S315000050A009CA85ED0ABA85ED0BAA3DE000008CC35E
S315000050B000247449A306533B8D479BC3EC51B8C0EB
S315000050C0000000000000C842CDCCCC3DA69B443A6F
S315000050D00EA21138F99E01C271883342CCBC8CAB4A
S315000050E0B7EE000A00208DED060A00BF291891EDE3
S315000050F0001A91ED0C2A043032EE412A20EE022AE3
S3150000510032EE011A242881ED001AEFD195ED092A15
S3150000511095ED153A95ED101A33EE423A20EE030A54
S3150000512030EE020A85ED090A002695ED140AB7EE5F
S3150000513000CA80EE010A1FED191A1FED192A80FE1A
S315000051400C0A20EE010A30EE020A00F045FD1FEDC2
S315000051501DDA0120002106AA002300BFEF1897EDF3
S31500005160001A97ED0C2AD71831EE421AB4EE4D1AF2
S31500005170F1EE10FA03F1040398BF0846242B87EDDD
S31500005180001AEBD18CEE001A9DED0ABA30EE412AD8
S3150000519030EE010A82EE000A9FEDF21A9FEDF22A26
S315000051A020EE010A30EE020A80FE0C0AB1EE041A65
S315000051B0B4EE410AF1EE10FA31FE00AA000600F044
S315000051C0A780686B02A90F9006A800F0D3FC95EDA6
S315000051D00A0A95ED161AB0EE49CA30EE412AB4EE27
S315000051E04D2AF1EE10FA11D506A804A98DED060A8E
S315000051F08DED071A00F058FC9DED040AB7EE041A6F
S315000052009FEDD72A20EE010A80FE02CA95ED0BDA41
S3150000521095ED170A8DED04CA3DEE400A10EE100A10
S3150000522000F097FD9FEDCA0B53EC102B00F044FEE7
S31500005230B0EE490A40B306AF05A938468DED06DA49
S315000052408DED07DA00F052FC9DED050AB7EE04CAB3
S315000052509FEDC3DAE86AE96D20EE0C0A80FE0D0ABE
S31500005260CDE9060103A938468DED050A00F03EFC9E
S315000052709DED030A9DED051A20EE0C0A80FE0D0A2F
S315000052809DED04CA30EE410AB4EE4C0AF1EE10FA76
S315000052908DED030A30FE0C0A3BEE400A80FE090A39
S315000052A005A801A98DED050A00F042FC9DED020A54
S315000052B09FEDAE1A9DED012A80FE010A82FE011ABB
S315000052C0B6EE002A2AEE011A20EE020A30EE019A04
S315000052D000EE108A9FEDA61A4FFA88F0B8EE400A43
S315000052E030EE011A002820FE010A10EE100A00F026
S315000052F030FD41EC110B9FED980B04F0D9FB51ECFE
S31500005300100B00F0C2FD00EE100A29EE009A28E00C
S31500005310B4EE4DBA0020F1EE10FA58BF012086F027
S3150000532001019FED949A08431BD19FED930A9FEDCF
S31500005330931A2BEE000A30EE010A00F04DFC8CEEBB
S31500005340001A30EE412A30EE010A82EE000A9FED85
S315000053508C1A9FED8C2A20EE010A30EE020A85EDAA
S31500005360200A9FED840A9FED88AA89FE00BA2BEEDB
S315000053700A9AB0EE490A00F02DF9286E012808D1E4
S31500005380B0EE490A85ED1EBA00F024F995ED1E1A15
S3150000539013E095ED1E1A95ED1F2A9FED7C3A3BEE24
S315000053A0414A30EE420A24EE034A20EE030A34EE66
S315000053B0011A30EE020A85ED1E1A21EE0A2A85ED43
S315000053C01F0A89ED110A89ED122A89ED131A95F83B
S315000053D0980068B1002085F898000020C4F2C83013
S315000053E09FED6B0A85ED199A85ED1A9A68679BE021
S315000053F095ED190A9FED672A39EE405A95ED1A1A6E
S3150000540025EE022A32EE000A9FED632A39EE415A52
S3150000541025EE022A32EE011A9FED605A95ED1B3AEF
S3150000542030EE412A32EE055A33EE055A9FED4C3ADC
S315000054309FED5B6A85FE035AB4EE465AF1EE10FA0A
S3150000544036FE055A9FED576A95ED1C4A32EE066AFE
S3150000545034EE064AB5EE404AF1EE10FA9FED526A76
S3150000546033FE044A84FE064A9FED506A85ED190A0A
S31500005470B4EE462AF1EE10FA85ED1A1A85ED1B5A9E
S3150000548085ED1C4A32DC9FED4A6AB4EE465AF1EECF
S3150000549010FA2BDC9FED473AB4EE432AF1EE10FAF0
S315000054A006DD9FED453AB4EE434AF1EE10FA19DCFB
S315000054B09FED423AB4EE431AF1EE10FA12DD80EE99
S315000054C0010A95ED1D1A9FED3F2A31EE021ABFEE35
S315000054D0002A30EE020A9FED3C2A20EE010A20EE59
S315000054E0023A03E09FED360A22EE003A95ED1D0AD8
S315000054F09FED361A9FED262A33EE000A29EE011A91
